:020000040800F2
:100000000050002031330008193100081F3100086A
:10001000253100082B3100083131000800000000B4
:100020000000000000000000000000003731000860
:1000300043310008000000004F3100085B31000828
:1000400079330008793300087933000879330008E0
:1000500079330008793300087933000879330008D0
:1000600079330008793300087933000879330008C0
:1000700079330008793300087933000879330008B0
:1000800079330008793300087933000879330008A0
:100090007933000879330008793300087933000890
:1000A0007933000879330008793300087933000880
:1000B000693100087D31000891310008793300086A
:1000C0007933000879330008793300087933000860
:1000D0007933000879330008793300087933000850
:1000E00079330008793300087933000800000000F4
:1000F0000000000000000000000000000000000000
:0C01000000000000000000005FF808F1A3
:1001100010B5054C237833B9044B13B10448AFF341
:1001200000800123237010BD180200200000000091
:100130007CB2000808B5034B1BB103490348AFF379
:10014000008008BD000000001C0200207CB20008F6
:10015000034613F8012B002AFBD1181A0138704707
:1001600081F0004102E000BF83F0004330B54FEA68
:1001700041044FEA430594EA050F08BF90EA020FD5
:100180001FBF54EA000C55EA020C7FEA645C7FEA68
:10019000655C00F0E2804FEA5454D4EB5555B8BF8B
:1001A0006D420CDD2C4480EA020281EA030382EAFC
:1001B000000083EA010180EA020281EA0303362D8E
:1001C00088BF30BD11F0004F4FEA01314FF4801C61
:1001D0004CEA113102D0404261EB410113F0004F73
:1001E0004FEA03334CEA133302D0524263EB43032A
:1001F00094EA050F00F0A780A4F10104D5F1200EC8
:100200000DDB02FA0EFC22FA05F2801841F1000122
:1002100003FA0EF2801843FA05F359410EE0A5F1F6
:1002200020050EF1200E012A03FA0EFC28BF4CF027
:10023000020C43FA05F3C01851EBE37101F00045DD
:1002400007D54FF0000EDCF1000C7EEB00006EEBEA
:100250000101B1F5801F1BD3B1F5001F0CD3490874
:100260005FEA30004FEA3C0C04F101044FEA4452CB
:1002700012F5800F80F09A80BCF1004F08BF5FEA52
:10028000500C50F1000041EB045141EA050130BD32
:100290005FEA4C0C404141EB0101013C28BFB1F544
:1002A000801FE9D291F0000F04BF01460020B1FA8F
:1002B00081F308BF2033A3F10B03B3F120020CDA62
:1002C0000C3208DD02F1140CC2F10C0201FA0CF040
:1002D00021FA02F10CE002F11402D8BFC2F1200CA5
:1002E00001FA02F120FA0CFCDCBF41EA0C0190405B
:1002F000E41AA2BF01EB0451294330BD6FEA0404A4
:100300001F3C1CDA0C340EDC04F11404C4F120028E
:1003100020FA04F001FA02F340EA030021FA04F3A0
:1003200045EA030130BDC4F10C04C4F1200220FAF7
:1003300002F001FA04F340EA0300294630BD21FA35
:1003400004F0294630BD94F0000F83F4801306BFFB
:1003500081F480110134013D4EE77FEA645C18BFEF
:100360007FEA655C29D094EA050F08BF90EA020F86
:1003700005D054EA000C04BF1946104630BD91EA7E
:10038000030F1EBF0021002030BD5FEA545C05D181
:100390004000494128BF41F0004130BD14F58004C0
:1003A0003CBF01F5801130BD01F0004545F0FE4134
:1003B00041F470014FF0000030BD7FEA645C1ABF69
:1003C000194610467FEA655C1CBF0B46024650EAA0
:1003D000013406BF52EA033591EA030F41F40021CC
:1003E00030BD00BF90F0000F04BF0021704730B552
:1003F0004FF4806404F132044FF000054FF0000127
:1004000050E700BF90F0000F04BF0021704730B5E7
:100410004FF4806404F1320410F0004548BF4042BC
:100420004FF000013EE700BF42004FEAE2014FEA11
:1004300031014FEA02701FBF12F07F4393F07F4FEC
:1004400081F06051704732F07F4208BF704793F0EF
:100450007F4F04BF41F40021704730B54FF4607402
:1004600001F0004521F000411CE700BF50EA010205
:1004700008BF704730B54FF000050AE050EA0102AE
:1004800008BF704730B511F0004502D5404261EB1E
:1004900041014FF4806404F132045FEA915C3FF45F
:1004A000D8AE4FF003025FEADC0C18BF03325FEAFC
:1004B000DC0C18BF033202EBDC02C2F1200300FAAD
:1004C00003FC20FA02F001FA03FE40EA0E0021FAD2
:1004D00002F11444BDE600BF70B54FF0FF0C4CF4C0
:1004E000E06C1CEA11541DBF1CEA135594EA0C0F72
:1004F00095EA0C0F00F0DEF82C4481EA030621EAAD
:100500004C5123EA4C5350EA013518BF52EA0335E7
:1005100041F4801143F4801338D0A0FB02CE4FF099
:100520000005E1FB02E506F00042E0FB03E54FF0C9
:100530000006E1FB03569CF0000F18BF4EF0010EC1
:10054000A4F1FF04B6F5007F64F5407404D25FEABD
:100550004E0E6D4146EB060642EAC62141EA555170
:100560004FEAC52040EA5E504FEACE2EB4F1FD0CB2
:1005700088BFBCF5E06F1ED8BEF1004F08BF5FEA30
:10058000500E50F1000041EB045170BD06F00046E2
:1005900046EA010140EA020081EA0301B4EB5C048F
:1005A000C2BFD4EB0C0541EA045170BD41F4801187
:1005B0004FF0000E013C00F3AB8014F1360FDEBFAC
:1005C000002001F0004170BDC4F10004203C35DA88
:1005D0000C341BDC04F11404C4F1200500FA05F30B
:1005E00020FA04F001FA05F240EA020001F00042AC
:1005F00021F0004110EBD37021FA04F642EB060122
:100600005EEA430E08BF20EAD37070BDC4F10C044B
:10061000C4F1200500FA04F320FA05F001FA04F20F
:1006200040EA020001F0004110EBD37041F10001FB
:100630005EEA430E08BF20EAD37070BDC4F1200506
:1006400000FA05F24EEA020E20FA04F301FA05F26E
:1006500043EA020321FA04F001F0004121FA04F216
:1006600020EA020000EBD3705EEA430E08BF20EAE6
:10067000D37070BD94F0000F0FD101F00046400020
:1006800041EB010111F4801F08BF013CF7D041EAA2
:10069000060195F0000F18BF704703F000465200A6
:1006A00043EB030313F4801F08BF013DF7D043EA77
:1006B0000603704794EA0C0F0CEA135518BF95EA2D
:1006C0000C0F0CD050EA410618BF52EA4306D1D1B4
:1006D00081EA030101F000414FF0000070BD50EAD3
:1006E000410606BF1046194652EA430619D094EA5D
:1006F0000C0F02D150EA013613D195EA0C0F05D147
:1007000052EA03361CBF104619460AD181EA03019A
:1007100001F0004141F0FE4141F470014FF0000052
:1007200070BD41F0FE4141F4780170BD70B54FF0ED
:10073000FF0C4CF4E06C1CEA11541DBF1CEA13556D
:1007400094EA0C0F95EA0C0F00F0A7F8A4EB05044F
:1007500081EA030E52EA03354FEA013100F0888046
:100760004FEA03334FF0805545EA131343EA12630F
:100770004FEA022245EA111545EA10654FEA0026C4
:100780000EF000419D4208BF964244F1FD0404F57D
:10079000407402D25B084FEA3202B61A65EB0305D9
:1007A0005B084FEA32024FF480104FF4002CB6EB96
:1007B000020E75EB030E22BFB61A754640EA0C0016
:1007C0005B084FEA3202B6EB020E75EB030E22BF56
:1007D000B61A754640EA5C005B084FEA3202B6EB97
:1007E000020E75EB030E22BFB61A754640EA9C0056
:1007F0005B084FEA3202B6EB020E75EB030E22BF26
:10080000B61A754640EADC0055EA060E18D04FEAE3
:10081000051545EA16754FEA06164FEAC30343EA83
:1008200052734FEAC2025FEA1C1CC0D111F4801F50
:100830000BD141EA00014FF000004FF0004CB6E749
:1008400011F4801F04BF01430020B4F1FD0C88BFE8
:10085000BCF5E06F3FF6AFAEB5EB030C04BFB6EBF3
:10086000020C5FEA500C50F1000041EB045170BDE6
:100870000EF0004E4EEA113114EB5C04C2BFD4EB13
:100880000C0541EA045170BD41F480114FF0000E97
:10089000013C90E645EA060E8DE60CEA135594EA13
:1008A0000C0F08BF95EA0C0F3FF43BAF94EA0C0F16
:1008B0000AD150EA01347FF434AF95EA0C0F7FF48B
:1008C00025AF104619462CE795EA0C0F06D152EADF
:1008D00003353FF4FDAE1046194622E750EA4106C3
:1008E00018BF52EA43067FF4C5AE50EA41047FF4D4
:1008F0000DAF52EA43057FF4EBAE12E74FF0FF3C39
:1009000006E000BF4FF0010C02E000BF4FF0010C09
:100910004DF804CD4FEA410C7FEA6C5C4FEA430C82
:1009200018BF7FEA6C5C1BD001B050EA410C0CBFD1
:1009300052EA430C91EA030F02BF90EA020F002033
:10094000704710F1000F91EA030F58BF994208BF9A
:1009500090422CBFD8176FEAE37040F00100704757
:100960004FEA410C7FEA6C5C02D150EA013C07D1AE
:100970004FEA430C7FEA6C5CD6D152EA033CD3D0F9
:100980005DF8040B704700BF8446104662468C46F3
:100990001946634600E000BF01B5FFF7B7FF002826
:1009A00048BF10F1000F01BD4DF808EDFFF7F4FF4F
:1009B0000CBF012000205DF808FB00BF4DF808EDDA
:1009C000FFF7EAFF34BF012000205DF808FB00BFFD
:1009D0004DF808EDFFF7E0FF94BF012000205DF81F
:1009E00008FB00BF4DF808EDFFF7CEFF94BF0120D4
:1009F00000205DF808FB00BF4DF808EDFFF7C4FFCD
:100A000034BF012000205DF808FB00BF4FEA410C15
:100A10007FEA6C5C02D150EA013C0AD14FEA430CF8
:100A20007FEA6C5C02D152EA033C02D14FF0000035
:100A300070474FF0010070474FEA410212F5001273
:100A400015D211D56FF47873B3EB625212D94FEA15
:100A5000C12343F0004343EA505311F0004F23FAFF
:100A600002F018BF404270474FF00000704750EA54
:100A7000013005D111F0004008BF6FF00040704711
:100A80004FF00000704700BF4FEA4102B2F1E0436F
:100A900024BFB3F5001CDCF1FE5C0DD901F0004C65
:100AA0004FEAC0024CEA5070B2F1004F40EB8300B5
:100AB00008BF20F00100704711F0804F21D113F1E1
:100AC0003872BCBF01F00040704741F480114FEA1A
:100AD0005252C2F11802C2F1200C10FA0CF320FAA3
:100AE00002F018BF40F001004FEAC1234FEAD323C0
:100AF00003FA0CFC40EA0C0023FA02F34FEA43032A
:100B0000CCE77FEA625307D150EA01331EBF4FF0B2
:100B1000FE4040F44000704701F0004040F0FE40CD
:100B200040F40000704700BF80F0004002E000BFCA
:100B300081F0004142001FBF5FEA410392EA030FC8
:100B40007FEA226C7FEA236C6AD04FEA1262D2EB12
:100B50001363C1BFD218414048404140B8BF5B4217
:100B6000192B88BF704710F0004F40F4000020F0B0
:100B70007F4018BF404211F0004F41F4000121F0C6
:100B80007F4118BF494292EA030F3FD0A2F1010210
:100B900041FA03FC10EB0C00C3F1200301FA03F14E
:100BA00000F0004302D5494260EB4000B0F5000F71
:100BB00013D3B0F1807F06D340084FEA310102F130
:100BC0000102FE2A51D2B1F1004F40EBC25008BFE2
:100BD00020F0010040EA03007047490040EB0000AC
:100BE000013A28BFB0F5000FEDD2B0FA80FCACF1AD
:100BF000080CB2EB0C0200FA0CF0AABF00EBC250DA
:100C000052421843BCBFD0401843704792F0000FC7
:100C100081F4000106BF80F400000132013BB5E71A
:100C20004FEA41037FEA226C18BF7FEA236C21D090
:100C300092EA030F04D092F0000F08BF08467047F5
:100C400090EA010F1CBF0020704712F07F4F04D1C3
:100C5000400028BF40F00040704712F100723CBFD6
:100C600000F50000704700F0004343F0FE4040F400
:100C7000000070477FEA226216BF08467FEA2363BE
:100C80000146420206BF5FEA412390EA010F40F4A9
:100C9000800070474FF0000304E000BF10F00043F5
:100CA00048BF40425FEA000C08BF704743F09643DC
:100CB00001464FF000001CE050EA010208BF7047F7
:100CC0004FF000030AE000BF50EA010208BF70477E
:100CD00011F0004302D5404261EB41015FEA010C93
:100CE00002BF84460146002043F0B64308BFA3F18B
:100CF0008053A3F50003BCFA8CF2083AA3EBC2536D
:100D000010DB01FA02FC634400FA02FCC2F120028B
:100D1000BCF1004F20FA02F243EB020008BF20F0C2
:100D20000100704702F1200201FA02FCC2F1200228
:100D300050EA4C0021FA02F243EB020008BF20EA1D
:100D4000DC7070474FF0FF0C1CEAD0521EBF1CEA4B
:100D5000D15392EA0C0F93EA0C0F6FD01A4480EA39
:100D6000010C400218BF5FEA41211ED04FF0006322
:100D700043EA501043EA5111A0FB01310CF000404E
:100D8000B1F5000F3EBF490041EAD3715B0040EA74
:100D9000010062F17F02FD2A1DD8B3F1004F40EB44
:100DA000C25008BF20F00100704790F0000F0CF017
:100DB000004C08BF49024CEA502040EA51207F3ADB
:100DC000C2BFD2F1FF0340EAC250704740F40000B6
:100DD0004FF00003013A5DDC12F1190FDCBF00F0A7
:100DE00000407047C2F10002410021FA02F1C2F155
:100DF000200200FA02FC5FEA310040F1000053EAF1
:100E00004C0308BF20EADC70704792F0000F00F03E
:100E1000004C02BF400010F4000F013AF9D040EA44
:100E20000C0093F0000F01F0004C02BF490011F4D8
:100E3000000F013BF9D041EA0C018FE70CEAD153D6
:100E400092EA0C0F18BF93EA0C0F0AD030F0004C56
:100E500018BF31F0004CD8D180EA010000F000400A
:100E6000704790F0000F17BF90F0004F084691F0C8
:100E7000000F91F0004F14D092EA0C0F01D1420202
:100E80000FD193EA0C0F03D14B0218BF084608D1CB
:100E900080EA010000F0004040F0FE4040F4000015
:100EA000704740F0FE4040F4400070474FF0FF0CA8
:100EB0001CEAD0521EBF1CEAD15392EA0C0F93EAEF
:100EC0000C0F69D0A2EB030280EA010C49024FEA41
:100ED000402037D04FF0805343EA111143EA1013FA
:100EE0000CF000408B4238BF5B0042F17D024FF4B2
:100EF000000C8B4224BF5B1A40EA0C00B3EB510F8D
:100F000024BFA3EB510340EA5C00B3EB910F24BF75
:100F1000A3EB910340EA9C00B3EBD10F24BFA3EBFA
:100F2000D10340EADC001B0118BF5FEA1C1CE0D1C2
:100F3000FD2A3FF650AF8B4240EBC25008BF20F075
:100F4000010070470CF0004C4CEA50207F32C2BFC9
:100F5000D2F1FF0340EAC250704740F400004FF066
:100F60000003013A37E792F0000F00F0004C02BF97
:100F7000400010F4000F013AF9D040EA0C0093F061
:100F8000000F01F0004C02BF490011F4000F013BBB
:100F9000F9D041EA0C0195E70CEAD15392EA0C0F23
:100FA00008D142027FF47DAF93EA0C0F7FF470AF5B
:100FB000084676E793EA0C0F04D14B023FF44CAF9E
:100FC00008466EE730F0004C18BF31F0004CCAD133
:100FD00030F000427FF45CAF31F000437FF43CAF6F
:100FE0005FE700BF4FF0FF3C06E000BF4FF0010C91
:100FF00002E000BF4FF0010C4DF804CD4FEA400273
:101000004FEA41037FEA226C18BF7FEA236C11D0BC
:1010100001B052EA530C18BF90EA010F58BFB2EB6F
:10102000030088BFC81738BF6FEAE17018BF40F0EF
:10103000010070477FEA226C02D15FEA402C05D1A3
:101040007FEA236CE4D15FEA412CE1D05DF8040B28
:10105000704700BF844608466146FFE70FB5FFF7BB
:10106000C9FF002848BF10F1000F0FBD4DF808ED73
:10107000FFF7F4FF0CBF012000205DF808FB00BF64
:101080004DF808EDFFF7EAFF34BF012000205DF8BE
:1010900008FB00BF4DF808EDFFF7E0FF94BF01200B
:1010A00000205DF808FB00BF4DF808EDFFF7D2FF08
:1010B00094BF012000205DF808FB00BF4DF808ED4B
:1010C000FFF7C8FF34BF012000205DF808FB00BF18
:1010D0004FEA4002B2F1FE4F0FD34FF09E03B3EB45
:1010E00012620DD94FEA002343F0004310F0004F85
:1010F00023FA02F018BF404270474FF000007047DB
:1011000012F1610F01D1420205D110F0004008BF79
:101110006FF0004070474FF00000704780B582B01C
:1011200000AF78607B681B7F012B58D1784B1B7810
:10113000002B1AD10021786804F02EFE0346754A70
:101140001360734B01221A707B681B681A6A7B68F4
:101150001B6822F00A021A627B681B681A6A7B68A5
:101160001B6842F002021A6239E0694B1B78012BBE
:1011700035D10021786804F00FFE0346664A1360FB
:10118000654B1A68634B1B689A4207D9624B1A6811
:10119000604B1B68D31A614A13600FE05E4B1A68FC
:1011A0005C4B1B689A4209D25B4B1A68594B1B680F
:1011B000D31A03F57F43FF33584A13607B681B68DB
:1011C0001A6A7B681B6822F00A021A627B681A6836
:1011D0007B681B68126A1A624D4B00221A707B688A
:1011E0001B7F022B58D14E4B1B78002B1AD10421A8
:1011F000786804F0D1FD03464A4A1360484B012247
:101200001A707B681B681A6A7B681B6822F0A00250
:101210001A627B681B681A6A7B681B6842F02002AE
:101220001A6239E03E4B1B78012B35D104217868D6
:1012300004F0B2FD03463C4A13603B4B1A68394B3D
:101240001B689A4207D9384B1A68364B1B68D31A69
:10125000364A13600FE0344B1A68324B1B689A42CF
:1012600009D2314B1A682F4B1B68D31A03F57F4301
:10127000FF332E4A13607B681B681A6A7B681B6801
:1012800022F0A0021A627B681A687B681B68126AE7
:101290001A62234B00221A707B681B7F042B70D1CB
:1012A000234B1B78002B1AD10821786804F074FDB9
:1012B0000346204A13601E4B01221A707B681B688C
:1012C0001A6A7B681B6822F400721A627B681B68CA
:1012D0001A6A7B681B6842F400721A6251E0144B70
:1012E0001B78012B4DD10821786804F055FD034689
:1012F000114A1360104B1A680E4B1B689A421FD993
:101300000D4B1A680B4B1B68D31A0C4A136027E06D
:10131000900300206003002064030020800300206D
:1013200091030020680300206C0300208403002048
:101330009203002070030020740300208803002023
:10134000404B1A68404B1B689A4209D23D4B1A68C1
:101350003D4B1B68D31A03F57F43FF333B4A1360B1
:101360007B681B681A6A7B681B6822F400721A6229
:101370007B681A687B681B68126A1A62344B002209
:101380001A707B681B7F082B58D1324B1B78002BBF
:101390001AD10C21786804F0FFFC03462E4A136032
:1013A0002C4B01221A707B681B681A6A7B681B68C9
:1013B00022F400521A627B681B681A6A7B681B68F9
:1013C00042F400521A6239E0224B1B78012B35D1CE
:1013D0000C21786804F0E0FC0346204A13601F4BA0
:1013E0001A681D4B1B689A4207D91C4B1A681A4B86
:1013F0001B68D31A1A4A13600FE0184B1A68164B71
:101400001B689A4209D2154B1A68134B1B68D31AF2
:1014100003F57F43FF33124A13607B681B681A6A27
:101420007B681B6822F400521A627B681A687B682A
:101430001B68126A1A62074B00221A7000BF083735
:10144000BD4680BD74030020700300208803002087
:101450009203002093030020780300207C030020E7
:101460008C03002080B586B004AF4FF47A730293EA
:1014700001230193FB1D009301237522D0212348F2
:1014800002F004FDFB79682B3BD10023BB714FF4C4
:101490007A73029301230193BB1D009301236B22F6
:1014A000D0211A4802F0F8FB0823BB714FF47A737D
:1014B000029301230193BB1D009301231B22D02122
:1014C000124802F0E9FB1023BB714FF47A730293C8
:1014D00001230193BB1D009301231C22D0210B4843
:1014E00002F0DAFB0323BB714FF47A7302930123FA
:1014F0000193BB1D009301231A22D021034802F05F
:10150000CBFB00BF0837BD4680BD00BF34020020C2
:1015100080B588B004AF4FF47A7302930E23019321
:101520003B46009301233B22D021534802F0AEFCFE
:101530003B781B021AB27B781BB213431AB24F4B93
:101540001A80BB781B021AB2FB781BB213431AB283
:101550004B4B1A803B791B021AB27B791BB21343A7
:101560001AB2484B1A80BB791B021AB2FB791BB224
:1015700013431AB2444B1A803B7A1B021AB27B7A8D
:101580001BB213431AB2414B1A80BB7A1B021AB228
:10159000FB7A1BB213431AB23D4B1A803B7B1B02F2
:1015A0001AB27B7B1BB213431AB23A4B1A80384BE8
:1015B000B3F900309BB25B429BB21AB2344B1A8033
:1015C000344BB3F900309BB25B429BB21AB2314B41
:1015D0001A802A4BB3F900309AB22F4BB3F900307E
:1015E0009BB2D31A9BB21AB2244B1A80244BB3F984
:1015F00000309AB2294BB3F900309BB2D31A9BB298
:101600001AB21F4B1A801F4BB3F900309AB2244B09
:10161000B3F900309BB2D31A9BB21AB2194B1A809D
:101620001A4BB3F900309AB21E4BB3F900309BB29B
:10163000D31A9BB21AB2154B1A80154BB3F900306E
:101640009AB2194BB3F900309BB2D31A9BB21AB2BB
:101650000F4B1A800F4BB3F900309AB2134BB3F90A
:1016600000309BB2D31A9BB21AB20A4B1A8000BF49
:101670001037BD4680BD00BF340200209403002017
:101680009603002098030020A00300209A03002066
:101690009C0300209E030020000000200200002088
:1016A0000400002006000020080000200A0000209E
:1016B0002DE9B04382B000AF01F060FE01F096F971
:1016C00001F082FB01F0D8F901F006FA01F078FA96
:1016D00001F0F8FAFFF7C6FE00224FF40051494826
:1016E00002F064F900237B600AE04FF400514548A2
:1016F00002F074F9642001F0A3FE7B6801337B6083
:101700007B68132BF1DD00213F4803F021FF04210A
:101710003D4803F01DFF08213B4803F019FF0C2151
:10172000394803F015FF00BF384B1B6840F2DD322B
:101730009342F9D9364B1B6840F2DD329342F3D91C
:10174000344B1B6840F2DD329342EDD9324B1B68BB
:1017500040F2DD329342E7D900BF2E4B1B6840F2C6
:10176000DD329342F9D92B4B1B6840F21A42934267
:10177000F3D80821294803F0F9FD0C21274803F08C
:10178000F5FD0821264803F0F1FD0C21244803F063
:10179000EDFD224B1B684FF4FA62DA631F4B1B68A6
:1017A0004FF4FA621A641E4B1B684FF4FA62DA6354
:1017B0001B4B1B684FF4FA621A64322001F040FEA2
:1017C000164B1B684FF47A72DA63144B1B684FF4A4
:1017D0007A721A64124B1B684FF47A72DA63104BF8
:1017E0001B684FF47A721A644FF4967001F028FE69
:1017F00001224FF40051034802F0D8F800233B6067
:101800001BE000BF00100140880200208003002080
:1018100084030020880300208C030020D0020020D5
:10182000180300204FF40051CD4802F0D7F864208F
:1018300001F006FE3B6801333B603B68132BF1DD92
:1018400001F0F4FD0346C74A1360FFF761FEC64B83
:101850001B681846FEF7E8FDB7A3D3E90023FEF79F
:101860003BFE02460B4614461D46C04BB3F9003002
:101870001846FFF713FA03461846FEF7D5FDB0A346
:10188000D3E90023FEF728FE02460B461046194610
:10189000ADA3D3E90023FEF749FF02460B462046DD
:1018A0002946FEF763FC02460B4610461946FFF731
:1018B000EBF80346AC4A1360AB4B5B681846FEF787
:1018C000B3FD9DA3D3E90023FEF706FE02460B46B7
:1018D00014461D46A64BB3F900301846FFF7DEF953
:1018E00003461846FEF7A0FD95A3D3E90023FEF7B3
:1018F000F3FD02460B461046194693A3D3E9002395
:10190000FEF714FF02460B4620462946FEF72EFC42
:1019100002460B4610461946FFF7B6F80346924AB0
:101920005360914B9B681846FEF77EFD82A3D3E976
:101930000023FEF7D1FD02460B4614461D468D4B93
:10194000B3F900301846FFF7A9F903461846FEF729
:101950006BFD7BA3D3E90023FEF7BEFD02460B46D9
:101960001046194678A3D3E90023FEF7DFFE0246AE
:101970000B4620462946FEF7F9FB02460B46104669
:101980001946FFF781F80346774A93607A4B1C6843
:10199000764BB3F900301846FEF734FD6CA3D3E95B
:1019A0000023FEF7C3FE02460B4610461946FFF71A
:1019B0006BF8034619462046FFF7BCF803461A4663
:1019C0006D4B1A606C4B5C68694BB3F9003018467C
:1019D000FEF718FD5EA3D3E90023FEF7A7FE02463B
:1019E0000B4610461946FFF74FF8034619462046A6
:1019F000FFF7A0F803461A465F4B5A605E4B5B68E0
:101A00001846FEF711FD04460D465B4B1B68184651
:101A1000FEF70AFD80468946564BB3F9003018465A
:101A2000FFF73CF903461846FEF7FEFC4AA3D3E94C
:101A30000023FEF751FD02460B461046194607F0FB
:101A400073FB02460B4640464946FEF745FD0246FB
:101A50000B4620462946FEF787FB02460B461046FA
:101A60001946FFF711F80346434A5360424B1B687F
:101A70001846FEF7D9FC04460D463F4B5B681846F6
:101A8000FEF7D2FC804689463A4BB3F9003018463F
:101A9000FFF704F903461846FEF7C6FC2EA3D3E968
:101AA0000023FEF719FD02460B461046194607F0C3
:101AB0003BFB02460B4640464946FEF70DFD0246FB
:101AC0000B4620462946FEF751FB02460B461046C0
:101AD0001946FEF7D9FF0346274A1360274BB3F98F
:101AE00000301846FEF78EFC4FF000024FF08043A6
:101AF00007F088FB04460D46214BB3F90030184629
:101B0000FEF780FC4FF000024FF0804307F07AFBB5
:101B100002460B4620462946FEF728FB02460B46A6
:101B200014461D46174BB3F900301846FEF76AFC01
:101B30004FF0000228E000BF666666666666E63F14
:101B4000333333333333D33F000000000060504061
:101B50000000000080FBCF406B81C862CAE1B13E4B
:101B60000010014038040020080400209A030020DF
:101B70009C0300209E030020EC03002000000020B6
:101B800002000020040000204FF0804307F03AFBE1
:101B900002460B4620462946FEF7E8FA02460B4667
:101BA0001046194607F096FB02460B4610461946AA
:101BB000FEF742FF0346B84A1360B84BB3F9003052
:101BC0001A46B54B1B689A4204DDB34B1B681AB228
:101BD000B24B1A80B14BB3F900301A46AE4B1B68BA
:101BE0005B429A4207DAAC4B1B689BB25B429BB2EA
:101BF0001AB2AA4B1A80AA4BB3F900301A46A64B68
:101C00001B689A4204DDA44B1B681AB2A44B1A80CD
:101C1000A34BB3F900301A469F4B1B685B429A42B4
:101C200007DA9D4B1B689BB25B429BB21AB29C4B7E
:101C30001A809A4BB3F900301846FFF72FF8044684
:101C4000954B1B681846FFF729F8034619462046AE
:101C5000FFF72CF903461846FEF7E6FB02460B4653
:101C60001046194607F0A6FA7DA3D3E90023FEF734
:101C700033FC02460B4610461946FEF705FF0346A5
:101C8000884A1360864BB3F900301846FFF706F810
:101C90000446814B1B681846FFF700F803461946B7
:101CA0002046FFF703F903461846FEF7BDFB024640
:101CB0000B461046194607F07DFA6BA3D3E90023C3
:101CC000FEF70AFC02460B4610461946FEF7DCFEFC
:101CD0000346744A5360744B1B681846FEF7A4FB16
:101CE00063A3D3E90023FEF7F7FB02460B46144635
:101CF0001D466C4B1B681846FEF796FB5EA3D3E9A6
:101D00000023FEF7E9FB02460B4620462946FEF774
:101D10002DFA02460B4610461946FEF7B5FE03465D
:101D2000614A1360604B5B681846FEF77DFB50A369
:101D3000D3E90023FEF7D0FB02460B4614461D46AE
:101D4000584B5B681846FEF76FFB4BA3D3E90023A3
:101D5000FEF7C2FB02460B4620462946FEF706FA6E
:101D600002460B4610461946FEF78EFE03464E4AC3
:101D700053604E4B1B681846FEF756FB40A3D3E951
:101D80000023FEF7A9FB02460B4614461D46464BB0
:101D90001B681846FEF748FB3BA3D3E90023FEF778
:101DA0009BFB02460B4620462946FEF7DFF902461A
:101DB0000B4610461946FEF767FE03463B4A136082
:101DC0003A4B5B681846FEF72FFB2DA3D3E900239F
:101DD000FEF782FB02460B4614461D46324B5B68FB
:101DE0001846FEF721FB28A3D3E90023FEF774FB76
:101DF00002460B4620462946FEF7B8F902460B4636
:101E000010461946FEF740FE0346284A5360284B09
:101E1000B3F900301846FEF7F5FA1DA3D3E9002305
:101E2000FEF784FC02460B4610461946FEF72CFED0
:101E300003461E4A93601D4B5B681E491846FEF719
:101E400081FF03461A461C4B1A60184B1B68194940
:101E50001846FEF777FF03461A46184B1A602FE024
:101E6000F8C1631ADCA54CC0F8C1631ADCA54C406C
:101E7000D7A3703D0AD7EF3F7B14AE47E17A743F9A
:101E80009A9999999999E93F9A9999999999C93FF4
:101E90000000000000605040040400209403002073
:101EA00096030020F8030020EC030020200400200B
:101EB0009E030020000070413C04002040040020EC
:101EC000894B5B68894A1360874B1B68884A13609B
:101ED000884B1B6840F21942934208D8864B1B6816
:101EE00040F21942934202D8844B01221A70834B6C
:101EF0001B78012B52D17F4B1B6840F21942934251
:101F00004CD87D4B1B6840F2AA52934246D97B4B7A
:101F100002221A707A4B1B687A4A1360784B5B680E
:101F2000784A5360784B4FF000021A60764B4FF0BE
:101F300000025A60744B4FF000029A60734B4FF0EE
:101F400000021A60714B4FF000025A606F4B4FF065
:101F500000029A606E4B4FF000021A606C4B4FF01B
:101F600000025A606A4B4FF000029A60694B4FF0D2
:101F700000021A60674B4FF000025A60654B4FF049
:101F800000029A60644B4FF000021A60634B4FF0FE
:101F900000021A60624B4FF000021A60574B1B7828
:101FA000022B0ED1534B1B6840F21942934208D8C2
:101FB000514B1B6840F29E72934202D94F4B002254
:101FC0001A70584B4FF000021A60564B4FF0000247
:101FD0005A60544B4FF000029A60534B1B6840F21A
:101FE000F55293420AD9504B1B68A3F2F553184699
:101FF000FEF750FE03464B4A13600FE04A4B1B6846
:1020000040F2D152934209D8474B1B68A3F2D253F6
:102010001846FEF73FFE0346424A1360414B1B68D9
:10202000424A126811461846FEF782FD03464049AF
:102030001846FEF73BFF03461A463A4B1A603D4BE3
:102040001B6840F2F55293420AD93A4B1B68A3F23F
:10205000F5531846FEF71EFE0346324A53600FE062
:10206000344B1B6840F2D152934209D8314B1B6864
:10207000A3F2D2531846FEF70DFE0346294A5360D9
:10208000284B5B682C4A126811461846FEF750FD33
:10209000034627491846FEF709FF03461A46214B17
:1020A0005A60144B1B6840F27E42934263D9124B34
:1020B0001B6840F20E62934242D90F4B1B68A3F299
:1020C0000E631846FEF78EF94FF000021B4BFEF729
:1020D0002DFB02460B4610461946FEF7D5FC03467B
:1020E000104A936047E000BF200400204404002011
:1020F00048040020880300208C0300202C040020CA
:10210000F8030020EC030020B0030020BC030020F3
:10211000C8030020D4030020E0030020E4030020D3
:10212000E8030020A40300208003002040040020D6
:1021300000004040840300203C04002000000840D0
:10214000914B1B6840F24552934214D88E4B1B684A
:10215000A3F246531846FEF745F94FF000028B4BA9
:10216000FEF7E4FA02460B4610461946FEF78CFCD1
:102170000346874A9360874B1B68854A126811465D
:102180001846FEF7D5FC03461A46834B1A60814B6E
:102190005B687F4A526811461846FEF7C9FC034641
:1021A0001A467D4B5A607B4B9B68794A9268114670
:1021B0001846FEF7BDFC03461A46774B9A60774BEC
:1021C0001B68754A126811461846FEF7B3FC0346B1
:1021D0001A46724B1A60714B5B686F4A526811461F
:1021E0001846FEF7A7FC03461A466C4B5A606B4B29
:1021F0009B68694A926811461846FEF79BFC0346A5
:102200001A46664B9A60654B1C68654B1B681946FD
:102210006448FEF74BFE034619462046FEF730FFA2
:102220000346002B09D05E4B1B6819465D48FEF73C
:102230003DFE03461A46594B1A60584B1C68584BD2
:102240001B6819465848FEF731FE034619462046DA
:10225000FEF734FF0346002B09D0514B1B6819468B
:102260005148FEF723FE03461A464C4B1A604B4B6F
:102270005C684B4B5B6819464A48FEF717FE0346FD
:1022800019462046FEF7FCFE0346002B09D0444BBE
:102290005B6819464348FEF709FE03461A463F4B62
:1022A0005A603E4B5C683E4B5B6819463E48FEF701
:1022B000FDFD034619462046FEF700FF0346002BAE
:1022C00009D0374B5B6819463748FEF7EFFD0346E8
:1022D0001A46324B5A60314B9C68314B9B68194609
:1022E0003048FEF7E3FD034619462046FEF7C8FED8
:1022F0000346002B09D02A4B9B6819462948FEF754
:10230000D5FD03461A46254B9A60244B9C68244B06
:102310009B6819462448FEF7C9FD03461946204626
:10232000FEF7CCFE0346002B09D01D4B9B681946D7
:102330001D48FEF7BBFD03461A46184B9A60154B25
:102340001B681A4A126811461846FEF7F1FB03464D
:102350001A46174B1A600F4B5B68144A52681146B5
:102360001846FEF7E5FB03461A46114B5A60094B27
:102370009B680E4A926811461846FEF7D9FB034641
:102380001A460B4B9A6015E08C03002000000840B1
:10239000A403002008040020B0030020C80300208C
:1023A00024000020000034C3000034431404002043
:1023B000BC030020AC4B1B68AC4A1360AA4B5B68A3
:1023C000AA4A5360A84B9B68A84A9360A84B1B6815
:1023D0001AB2A84B1A80A74BB3F9003040F21A4248
:1023E000934240F38D81A44B1B68A44A12681146A6
:1023F0001846FEF7A7FC03461846FEF715F80446F4
:102400000D469F4B1B689F4A126811461846FEF7FF
:1024100099FC03461846FEF707F891A3D3E9002379
:10242000FEF75AF802460B4620462946FDF79EFE67
:1024300002460B4614461D46934B1B68934A12688E
:1024400011461846FEF77EFC03461846FDF7ECFFE2
:1024500083A3D3E90023FEF769F902460B46204621
:102460002946FDF783FE02460B4610461946FEF745
:102470000BFB0346864A13607F4B5B687F4A5268BA
:1024800011461846FEF75EFC03461846FDF7CCFFE2
:1024900004460D467A4B5B687A4A526811461846E4
:1024A000FEF750FC03461846FDF7BEFF6CA3D3E9C8
:1024B0000023FEF711F802460B4620462946FDF799
:1024C00055FE02460B4614461D466F4B5B686F4A2D
:1024D000526811461846FEF735FC03461846FDF7CC
:1024E000A3FF5FA3D3E90023FEF720F902460B46C2
:1024F00020462946FDF73AFE02460B46104619468D
:10250000FEF7C2FA0346634A13605B4B9B685B4A63
:10251000926811461846FEF715FC03461846FDF76B
:1025200083FF04460D46564B9B68564A92681146F7
:102530001846FEF707FC03461846FDF775FF48A34B
:10254000D3E90023FDF7C8FF02460B462046294683
:10255000FDF70CFE02460B4614461D464A4B9B688F
:102560004A4A926811461846FEF7ECFB03461846A5
:10257000FDF75AFF3AA3D3E90023FEF7D7F8024646
:102580000B4620462946FDF7F1FD02460B46104654
:102590001946FEF779FA03463F4A13603F4B1B6822
:1025A0001846FEF77BFB0246394B1B68194610465E
:1025B000FEF766FD0346002B07D0384B1B68184614
:1025C000FEF76CFB0346324A1360344B1B685B42D8
:1025D0001846FEF763FB02462D4B1B681946104652
:1025E000FEF76CFD0346002B08D02C4B1B685B42AA
:1025F0001846FEF753FB0346254A1360274B5B68DA
:102600001846FEF74BFB0246224B1B681946104644
:10261000FEF736FD0346002B07D0204B5B681846BB
:10262000FEF73CFB03461B4A13601C4B5B685B4296
:102630001846FEF733FB0246164B1B681946104638
:10264000FEF73CFD0346002B2AD0144B5B685B422F
:102650001846FEF723FB03460E4A136020E000BF36
:10266000FCA9F1D24D62703F080400201404002040
:102670008803002036040020B0030020180000204A
:10268000C803002024000020BC03002030000020EC
:10269000E0030020E4030020E80300200C000020F9
:1026A000934B9B681846FEF7F9FA0246914B1B685C
:1026B00019461046FEF7E4FC0346002B07D08C4B6E
:1026C0009B681846FEF7EAFA03468A4A1360884B6D
:1026D0009B685B421846FEF7E1FA0246854B1B6891
:1026E00019461046FEF7EAFC0346002B08D0804B43
:1026F0009B685B421846FEF7D1FA03467D4A136099
:102700007D4B1B78022B40F007817C4BB3F90030E6
:10271000B3F5E16F03DD794B4FF4E1621A80774B3B
:10272000B3F900301846FEF7B9FA0246744B1B683D
:1027300019461046FEF7FEF903461A46714B1B6810
:1027400019461046FEF7F6F903461A46694B1B6810
:1027500019461046FEF7EEF903461846FEF7B8FC98
:1027600003461AB2684B1A80644BB3F9003018461E
:10277000FEF794FA0246624B1B6819461046FEF7B4
:10278000D7F903461A465F4B1B6819461046FEF7F9
:10279000D1F903461A46574B1B6819461046FEF7F7
:1027A000C7F903461846FEF793FC03461AB2574B87
:1027B0001A80524BB3F900301846FEF76FFA024602
:1027C0004F4B1B6819461046FEF7B2F903461A46EE
:1027D0004C4B1B6819461046FEF7AAF903461A46E9
:1027E000444B1B6819461046FEF7A4F903461846E9
:1027F000FEF76EFC03461AB2454B1A803F4BB3F905
:1028000000301846FEF74AFA02463D4B1B6819464F
:102810001046FEF78FF903461A463A4B1B681946D5
:102820001046FEF785F903461A46324B1B681946D7
:102830001046FEF77DF903461846FEF749FC0346AD
:102840001AB2344B1A80304BB3F9003040F24B428D
:10285000934203DC2C4B40F24C421A802B4BB3F9D1
:10286000003040F24B42934203DC284B40F24C4292
:102870001A80274BB3F9003040F24B42934203DCFD
:10288000234B40F24C421A80224BB3F9003040F205
:102890004B42934203DC1F4B40F24C421A801A4BCE
:1028A000B3F90030B3F5FA6F03DD174B4FF4FA625A
:1028B0001A80164BB3F90030B3F5FA6F03DD134BF2
:1028C0004FF4FA621A80124BB3F90030B3F5FA6F85
:1028D00003DD0F4B4FF4FA621A800E4BB3F9003050
:1028E000B3F5FA6F28DD0B4B4FF4FA621A8023E040
:1028F0000C000020E80300202C04002036040020F7
:10290000E0030020E40300202E0400203004002017
:1029100032040020340400202C4B4FF47A721A80C9
:102920002B4B4FF47A721A802A4B4FF47A721A802A
:10293000294B4FF47A721A80244BB3F90020274BAD
:102940001B68DA63244BB3F90020244B1B681A641C
:102950001F4BB3F90020224B1B68DA631D4BB3F900
:1029600000201F4B1B681A6400F060FD02461D4BDF
:102970001B68D31A042B19D900224FF400511A48AE
:1029800001F014F8154B1B684FF47A72DA63134B9D
:102990001B684FF47A721A64114B1B684FF47A72F9
:1029A000DA630F4B1B684FF47A721A6400BF00F0B1
:1029B0003DFD02460B4B1B68D31A032BF7D900F0E1
:1029C00035FD0346074A1360FEF73FBF2E04002083
:1029D000300400203204002034040020D002002003
:1029E00018030020380400200010014080B590B08A
:1029F00000AF07F1180328220021184603F080FEDB
:102A00003B1D00221A605A609A60DA601A61012345
:102A1000BB614FF48033FB6100233B620123BB6247
:102A200002237B634FF48033BB634FF4E013FB63FB
:102A300007F11803184601F0EBFF0346002B01D005
:102A400000F01AFA0F237B600223BB600023FB60B7
:102A50004FF480633B6100237B613B1D02211846DC
:102A600002F058FA0346002B01D000F005FA00BF2F
:102A70004037BD4680BD000080B500AF134B144AFF
:102A80001A60124B134A5A60104B4FF480429A60FE
:102A90000E4B0022DA600D4B4FF480421A610B4B53
:102AA00000225A61094B00229A61084B0022DA6128
:102AB000064B00221A62054800F0AAFF0346002BCD
:102AC00001D000F0D9F900BF80BD00BF3402002062
:102AD00000540040801A060080B586B000AF07F1B0
:102AE000100300221A605A603B4600221A605A60A6
:102AF0009A60DA60314B4FF080421A602F4B4722C8
:102B00005A602E4B00229A602C4B4FF6FF72DA600F
:102B10002A4B00221A61294B00229A61274802F0B1
:102B2000C7FC0346002B01D000F0A6F900233B614F
:102B300000237B6107F110031946204803F046FD8E
:102B40000346002B01D000F097F900233B600123DE
:102B50007B600023BB600023FB603B4600221946DC
:102B6000164802F003FF0346002B01D000F084F961
:102B70003B4604221946114802F0F8FE0346002B9A
:102B800001D000F079F93B46082219460B4802F0C3
:102B9000EDFE0346002B01D000F06EF93B460C22FF
:102BA0001946064802F0E2FE0346002B01D000F071
:102BB00063F900BF1837BD4680BD00BF8802002002
:102BC00080B58EB000AF07F1280300221A605A606A
:102BD0009A60DA6007F1200300221A605A603B1DF8
:102BE00000221A605A609A60DA601A615A619A612A
:102BF000324B334A1A60314B47225A602F4B002226
:102C00009A602E4B41F28832DA602C4B00221A6116
:102C10002A4B00229A61294802F000FB0346002B50
:102C200001D000F029F94FF48053BB6207F128036B
:102C30001946224802F0ECFF0346002B01D000F0B9
:102C40001BF91E4802F039FB0346002B01D000F0AF
:102C500013F900233B6200237B6207F1200319462E
:102C6000164803F0B3FC0346002B01D000F004F932
:102C700060237B600023BB600023FB6000237B613B
:102C80003B1D082219460D4802F004FF0346002BA5
:102C900001D000F0F1F83B1D0C221946074802F064
:102CA000F9FE0346002B01D000F0E6F8034800F0DF
:102CB000DFF900BF3837BD4680BD00BFD00200201D
:102CC0000004004080B58EB000AF07F12803002259
:102CD0001A605A609A60DA6007F1200300221A60D5
:102CE0005A603B1D00221A605A609A60DA601A61CD
:102CF0005A619A61324B334A1A60314B47225A600B
:102D00002F4B00229A602E4B41F28832DA602C4B16
:102D100000221A612A4B00229A61294802F07EFAA9
:102D20000346002B01D000F0A7F84FF48053BB629C
:102D300007F128031946224802F06AFF0346002BD8
:102D400001D000F099F81E4802F0B7FA0346002BB4
:102D500001D000F091F800233B6200237B6207F171
:102D600020031946164803F031FC0346002B01D01E
:102D700000F082F860237B600023BB600023FB60CF
:102D800000237B613B1D082219460D4802F082FE9C
:102D90000346002B01D000F06FF83B1D0C221946B2
:102DA000074802F077FE0346002B01D000F064F8DC
:102DB000034800F05DF900BF3837BD4680BD00BF55
:102DC000180300200008004080B588B000AF07F16C
:102DD000100300221A605A609A60DA60244B9B69E3
:102DE000234A43F010039361214B9B6903F01003C6
:102DF000FB60FB681E4B9B691D4A43F020039361F7
:102E00001B4B9B6903F02003BB60BB68184B9B699D
:102E1000174A43F004039361154B9B6903F00403C5
:102E20007B607B68124B9B69114A43F008039361F6
:102E30000F4B9B6903F008033B603B6800224FF493
:102E400000510C4800F0B2FD4FF400533B610123E8
:102E50007B610023BB610223FB6107F1100319466C
:102E6000044800F01FFC00BF2037BD4680BD00BFF6
:102E7000001002400010014080B400AF72B600BFE5
:102E8000FEE7000080B485B000AF154B9B69144A83
:102E900043F001039361124B9B6903F00103BB6094
:102EA000BB680F4BDB690E4A43F08053D3610C4B78
:102EB000DB6903F080537B607B680A4B5B68FB60D7
:102EC000FB6823F0E063FB60FB6843F00073FB608A
:102ED000044AFB68536000BF1437BD4680BC70478E
:102EE000001002400000014080B588B000AF78605B
:102EF00007F1100300221A605A609A60DA607B685A
:102F00001B68154A934223D1144B9B69134A43F023
:102F100008039361114B9B6903F00803FB60FB6896
:102F2000C0233B6112237B610323FB6107F1100384
:102F300019460B4800F0B6FB084BDB69074A43F41F
:102F40000013D361054BDB6903F40013BB60BB685E
:102F500000BF2037BD4680BD005400400010024035
:102F6000000C014080B588B000AF786007F1100315
:102F700000221A605A609A60DA607B681B68B3F1BD
:102F8000804F2BD1174BDB69164A43F00103D36105
:102F9000144BDB6903F00103FB60FB68114B9B6979
:102FA000104A43F0040393610E4B9B6903F0040342
:102FB000BB60BB680F233B6100237B610023BB61C7
:102FC00007F110031946084800F06CFB00220021AD
:102FD0001C2000F030FB1C2000F049FB00BF203714
:102FE000BD4680BD001002400008014080B584B09D
:102FF00000AF78607B681B681A4A934214D11A4B61
:10300000DB69194A43F00203D361174BDB6903F014
:103010000203FB60FB68002200211D2000F00BFB77
:103020001D2000F024FB18E07B681B680F4A9342C8
:1030300013D10D4BDB690C4A43F00403D3610A4BF7
:10304000DB6903F00403BB60BB68002200211E2083
:1030500000F0F1FA1E2000F00AFB00BF1037BD4659
:1030600080BD00BF00040040001002400008004086
:1030700080B588B000AF786007F1100300221A60B5
:103080005A609A60DA607B681B681F4A934218D1C5
:103090001E4B9B691D4A43F0080393611B4B9B69C0
:1030A00003F00803FB60FB6803233B6102237B61A1
:1030B0000223FB6107F110031946154800F0F2FAEC
:1030C0001DE07B681B68134A934218D10F4B9B6924
:1030D0000E4A43F0080393610C4B9B6903F008030D
:1030E000BB60BB684FF440733B6102237B610223EA
:1030F000FB6107F110031946054800F0D3FA00BF41
:103100002037BD4680BD00BF0004004000100240D3
:10311000000C01400008004080B400AFFEE780B41E
:1031200000AFFEE780B400AFFEE780B400AFFEE77B
:1031300080B400AFFEE780B400AF00BFBD4680BCE6
:10314000704780B400AF00BFBD4680BC704780B4FC
:1031500000AF00BFBD4680BC704780B500AF00F037
:1031600053F900BF80BD000080B500AF024802F0F7
:10317000F5FA00BF80BD00BF8802002080B500AF17
:10318000024802F0EBFA00BF80BD00BFD002002071
:1031900080B500AF024802F0E1FA00BF80BD00BF79
:1031A0001803002080B400AF01231846BD4680BC40
:1031B000704780B582B000AF7860396003F076FA6E
:1031C000034616221A604FF0FF3318460837BD46F3
:1031D00080BD80B582B000AF78604FF0FF31786875
:1031E000FFF7E7FFFEE780B586B000AFF860B96093
:1031F0007A6000237B610AE0AFF300800146BB6880
:103200005A1CBA60CAB21A707B6901337B617A6951
:103210007B689A42F0DB7B6818461837BD4680BD54
:1032200080B586B000AFF860B9607A6000237B613A
:1032300009E0BB685A1CBA601B781846AFF30080DF
:103240007B6901337B617A697B689A42F1DB7B6839
:1032500018461837BD4680BD80B483B000AF786093
:103260004FF0FF3318460C37BD4680BC704780B422
:1032700083B000AF786039603B684FF400525A6009
:10328000002318460C37BD4680BC704780B483B01D
:1032900000AF7860012318460C37BD4680BC7047EC
:1032A00080B485B000AFF860B9607A60002318463A
:1032B0001437BD4680BC704780B586B000AF7860DB
:1032C000144A154BD31A7B617B693B61134B1B6816
:1032D000002B02D1114B124A1A60104B1A687B68FE
:1032E00013443A699A4207D203F0E0F903460C22EC
:1032F0001A604FF0FF3309E0084B1B68FB60074B77
:103300001A687B681344054A1360FB68184618372F
:10331000BD4680BD00500020000400004C04002089
:103320006804002080B400AF00BFBD4680BC704779
:103330000C480D490D4A002302E0D458C450043310
:10334000C4188C42F9D30A4A0A4C002301E01360E6
:103350000432A242FBD3FFF7E5FF03F0ADF9FEF71D
:10336000A7F970470000002018020020B0B800083C
:103370001802002064040020FEE7000080B500AFC2
:10338000084B1B68074A43F010031360032000F04A
:1033900047F90F2000F008F8FFF774FD00231846E6
:1033A00080BD00BF0020024080B582B000AF7860D1
:1033B000124B1A68124B1B7819464FF47A73B3FB01
:1033C000F1F3B2FBF3F3184600F05FF90346002B6C
:1033D00001D001230EE07B680F2B0AD80022796808
:1033E0004FF0FF3000F027F9064A7B681360002396
:1033F00000E0012318460837BD4680BD3C00002090
:10340000440000204000002080B400AF054B1B7832
:103410001A46054B1B681344034A136000BFBD46A0
:1034200080BC7047440000205004002080B400AFEE
:10343000024B1B681846BD4680BC704750040020F4
:1034400080B584B000AF7860FFF7F0FFB8607B68AC
:10345000FB60FB68B3F1FF3F05D00A4B1B781A46AF
:10346000FB681344FB6000BFFFF7E0FF0246BB6848
:10347000D31AFA689A42F7D800BF00BF1037BD468A
:1034800080BD00BF4400002080B485B000AF7860EC
:103490007B6803F00703FB600C4BDB68BB60BA681A
:1034A0004FF6FF031340BB60FB681A02BB6813436F
:1034B00043F0BF6343F40033BB60044ABB68D3608E
:1034C00000BF1437BD4680BC704700BF00ED00E070
:1034D00080B400AF044BDB681B0A03F007031846F7
:1034E000BD4680BC704700BF00ED00E080B483B0F3
:1034F00000AF0346FB7197F90730002B0BDBFB791C
:1035000003F01F02064997F907305B09012000FA12
:1035100002F241F8232000BF0C37BD4680BC704743
:1035200000E100E080B483B000AF03463960FB7176
:1035300097F90730002B0ADB3B68DAB20C4997F9A0
:1035400007301201D2B20B4483F800230AE03B6833
:10355000DAB20849FB7903F00F03043B1201D2B23F
:103560000B441A7600BF0C37BD4680BC704700BFC5
:1035700000E100E000ED00E080B489B000AFF86049
:10358000B9607A60FB6803F00703FB61FB69C3F174
:103590000703042B28BF0423BB61FB690433062BFC
:1035A00002D9FB69033B00E000237B614FF0FF324F
:1035B000BB6902FA03F3DA43BB681A407B699A409D
:1035C0004FF0FF317B6901FA03F3D9437B680B406D
:1035D000134318462437BD4680BC704780B582B07F
:1035E00000AF78607B68013BB3F1807F01D301239A
:1035F0000FE00A4A7B68013B53600F214FF0FF3018
:10360000FFF790FF054B00229A60044B07221A60D7
:10361000002318460837BD4680BD00BF10E000E01B
:1036200080B582B000AF78607868FFF72DFF00BFEB
:103630000837BD4680BD80B586B000AF0346B9608F
:103640007A60FB7300237B61FFF742FF78617A6841
:10365000B9687869FFF790FF024697F90F30114675
:103660001846FFF75FFF00BF1837BD4680BD80B525
:1036700082B000AF0346FB7197F907301846FFF799
:1036800035FF00BF0837BD4680BD80B582B000AFB2
:1036900078607868FFF7A2FF034618460837BD46F2
:1036A00080BD000080B48BB000AF7860396000232B
:1036B0007B6200233B6269E101227B6A02FA03F329
:1036C000FB613B681B68FA691340BB61BA69FB691F
:1036D0009A4240F058813B685B689A4A93425ED0B8
:1036E000984A934275D8984A934258D0964A934242
:1036F0006FD8964A934252D0944A934269D8944ADA
:1037000093424CD0924A934263D8924A934246D015
:10371000904A93425DD8122B2AD8122B59D801A275
:1037200052F823F09F370008793700088B370008DC
:10373000CD370008D3370008D3370008D337000847
:10374000D3370008D3370008D3370008D337000831
:10375000D3370008D3370008D3370008D337000821
:10376000D3370008D33700088137000895370008A1
:10377000794A934213D02CE03B68DB683B6229E036
:103780003B68DB6804333B6224E03B68DB6808335A
:103790003B621FE03B68DB680C333B621AE03B682E
:1037A0009B68002B02D104233B6213E03B689B68BB
:1037B000012B05D108233B627B68FA691A6109E095
:1037C00008233B627B68FA695A6103E000233B628D
:1037D00000E000BFBB69FF2B01D87B6801E07B687C
:1037E00004337B61BB69FF2B02D87B6A9B0002E03C
:1037F0007B6A083B9B003B617B691A680F213B6930
:1038000001FA03F3DB431A40396A3B6901FA03F317
:103810001A437B691A603B685B6803F08053002B96
:1038200000F0B1804D4B9B694C4A43F0010393611A
:103830004A4B9B6903F00103BB60BB68484A7B6A43
:103840009B08023352F82330FB607B6A03F00303CA
:103850009B000F2202FA03F3DB43FA681340FB607C
:103860007B68404A934213D07B683F4A93420DD015
:103870007B683E4A934207D07B683D4A934201D120
:10388000032306E0042304E0022302E0012300E016
:1038900000237A6A02F0030292009340FA6813430D
:1038A000FB602F497B6A9B080233FA6841F82320AA
:1038B0003B685B6803F48033002B06D02D4B1A68FD
:1038C0002C49BB6913430B6006E02A4B1A68BB699D
:1038D000DB43284913400B603B685B6803F400330B
:1038E000002B06D0234B5A682249BB6913434B6017
:1038F00006E0204B5A68BB69DB431E4913404B600E
:103900003B685B6803F48013002B06D0194B9A6860
:103910001849BB6913438B6006E0164B9A68BB6974
:10392000DB43144913408B603B685B6803F400136E
:10393000002B21D00F4BDA680E49BB691343CB60D3
:1039400021E000BF00003210000031100000221002
:1039500000002110000012100000111000100240A1
:103960000000014000080140000C0140001001402F
:1039700000140140000401400B4BDA68BB69DB43D3
:1039800009491340CB607B6A01337B623B681A684C
:103990007B6A22FA03F3002B7FF48EAE00BF00BFD8
:1039A0002C37BD4680BC70470004014080B483B012
:1039B00000AF78600B467B8013467B707B78002BD2
:1039C00003D07A887B681A6103E07B881A047B68DD
:1039D0001A6100BF0C37BD4680BC704780B485B00B
:1039E00000AF78600B467B807B68DB68FB607A8881
:1039F000FB6813401A04FB68D9437B880B401A43C9
:103A00007B681A6100BF1437BD4680BC7047000058
:103A100080B584B000AF78607B68002B01D10123B2
:103A20002BE17B6893F83D30DBB2002B06D17B683D
:103A3000002283F83C207868FFF756FA7B6824223E
:103A400083F83D207B681B681A687B681B6822F03E
:103A500001021A607B681B681A687B681B6842F465
:103A600000421A607B681B681A687B681B6822F436
:103A700000421A6001F0A0FBF8607B685B68814A35
:103A8000934207D8FB68804A934294BF01230023E6
:103A9000DBB206E0FB687D4A934294BF012300231A
:103AA000DBB2002B01D00123E7E0FB68784AA2FBE0
:103AB00003239B0CBB607B681B685B6823F03F01A2
:103AC0007B681B68BA680A435A607B681B681B6A7C
:103AD00023F03F017B685B686A4A934202D8BB6867
:103AE000013309E0BB684FF4967202FB03F3694AA5
:103AF000A2FB03239B0901337A6812680B4313620C
:103B00007B681B68DB6923F44F4222F0FF027B686D
:103B10005B685C498B4219D8FB68591E7B685B68FF
:103B20005B00B1FBF3F3591C40F6FC730B40002B18
:103B30000AD0FB68591E7B685B685B00B1FBF3F33E
:103B40000133C3F30B0351E004234FE07B689B6810
:103B5000002B11D1FB68581E7B6859680B465B002F
:103B60000B44B0FBF3F30133C3F30B03002B0CBF87
:103B700001230023DBB212E0FB68581E7B68596802
:103B80000B469B000B4499000B44B0FBF3F301334D
:103B9000C3F30B03002B0CBF01230023DBB2002B6C
:103BA00001D0012322E07B689B68002B0ED1FB68CB
:103BB000581E7B6859680B465B000B44B0FBF3F35F
:103BC0000133C3F30B0343F400430FE0FB68581EBB
:103BD0007B6859680B469B000B4499000B44B0FB73
:103BE000F3F30133C3F30B0343F4404379680968EB
:103BF0001343CB617B681B681B6823F0C0017B68A3
:103C0000DA697B681B6A1A437B681B680A431A607F
:103C10007B681B689B6823F4034323F0FF037A68E7
:103C200011697A68D26811437A6812680B4393600D
:103C30007B681B68DB6823F0FF017B685A697B683F
:103C40009B691A437B681B680A43DA607B681B68C0
:103C50001A687B681B6842F001021A607B680022C8
:103C60001A647B68202283F83D207B6800221A6357
:103C70007B68002283F83E20002318461037BD469B
:103C800080BD00BFA08601007F841E00FF083D00AC
:103C900083DE1B43D34D621080B588B002AFF8605D
:103CA000084611461A4603467B810B463B81134664
:103CB000FB80FFF7BBFB7861FB6893F83D30DBB21C
:103CC000202B40F0D9807B690093192301226D4994
:103CD000F86800F0C1FC0346002B01D00223CCE0C1
:103CE000FB6893F83C30012B01D10223C5E0FB684F
:103CF000012283F83C20FB681B681B6803F001036A
:103D0000012B07D0FB681B681A68FB681B6842F030
:103D100001021A60FB681B681A68FB681B6822F4C2
:103D200000621A60FB68212283F83D20FB68402274
:103D300083F83E20FB6800221A64FB683A6A5A62E4
:103D4000FB68BA8C5A85FB685B8D9AB2FB681A8552
:103D5000FB684D4ADA62F8883A8979897B69019370
:103D6000BB6A00930346F86800F0F8FA0346002B9C
:103D700052D0012381E07A69B96AF86800F042FD07
:103D80000346002B0DD0FB681B6C042B07D1FB688E
:103D90001B681A68FB681B6842F400721A600123F2
:103DA0006BE0FB685B6A1A78FB681B681A61FB684A
:103DB0005B6A5A1CFB685A62FB681B8D013B9AB216
:103DC000FB681A85FB685B8D9BB2013B9AB2FB686E
:103DD0005A85FB681B685B6903F00403042B1BD145
:103DE000FB681B8D002B17D0FB685B6A1A78FB6899
:103DF0001B681A61FB685B6A5A1CFB685A62FB68A5
:103E00001B8D013B9AB2FB681A85FB685B8D9BB2E8
:103E1000013B9AB2FB685A85FB681B8D002BAAD127
:103E20007A69B96AF86800F02EFD0346002B0DD0C0
:103E3000FB681B6C042B07D1FB681B681A68FB68C6
:103E40001B6842F400721A60012316E0FB681B68CD
:103E50001A68FB681B6842F400721A60FB68202233
:103E600083F83D20FB68002283F83E20FB68002297
:103E700083F83C20002300E0022318461837BD4693
:103E800080BD00BF020010000000FFFF80B58CB0B5
:103E900002AFF860084611461A4603467B810B467E
:103EA0003B811346FB8000233B62FFF7BFFA786239
:103EB000FB6893F83D30DBB2202B40F044827B6AF4
:103EC0000093192301228249F86800F0C5FB0346DC
:103ED000002B01D0022337E2FB6893F83C30012B22
:103EE00001D1022330E2FB68012283F83C20FB6809
:103EF0001B681B6803F00103012B07D0FB681B68DC
:103F00001A68FB681B6842F001021A60FB681B68B4
:103F10001A68FB681B6822F400621A60FB682222A0
:103F200083F83D20FB68402283F83E20FB68002296
:103F30001A64FB683A6B5A62FB68BA8E5A85FB6852
:103F40005B8D9AB2FB681A85FB68624ADA62F88870
:103F50003A8979897B6A0193BB6B00930346F868C1
:103F600000F092FA0346002B01D00123ECE1FB683C
:103F70001B8D002B13D10023FB61FB681B685B6961
:103F8000FB61FB681B689B69FB61FB69FB681B6845
:103F90001A68FB681B6842F400721A60C0E1FB6893
:103FA0001B8D012B1ED1FB681B681A68FB681B6800
:103FB00022F480621A6072B600BF0023BB61FB6806
:103FC0001B685B69BB61FB681B689B69BB61BB6964
:103FD000FB681B681A68FB681B6842F400721A6071
:103FE00062B635E0FB681B8D022B1ED1FB681B6897
:103FF0001A68FB681B6842F400621A6072B600BF60
:1040000000237B61FB681B685B697B61FB681B6845
:104010009B697B617B69FB681B681A68FB681B688E
:1040200022F480621A6062B612E0FB681B681A68AC
:10403000FB681B6842F480621A6000233B61FB68E6
:104040001B685B693B61FB681B689B693B613B6963
:1040500066E1FB681B8D032B00F21F81FB681B8D43
:10406000012B23D17A6AB96BF86800F04DFC034646
:10407000002B01D0012367E1FB681B681A69FB680C
:104080005B6AD2B21A70FB685B6A5A1CFB685A62A0
:10409000FB681B8D013B9AB2FB681A85FB685B8D40
:1040A0009BB2013B9AB2FB685A8539E1FB681B8DD4
:1040B000022B52D17B6A0093BB6B00220649F86841
:1040C00000F0CAFA0346002B08D001233CE100BFF0
:1040D000020010000000FFFF0400010072B600BFE4
:1040E000FB681B681A68FB681B6842F400721A6060
:1040F000FB681B681A69FB685B6AD2B21A70FB68BE
:104100005B6A5A1CFB685A62FB681B8D013B9AB2C2
:10411000FB681A85FB685B8D9BB2013B9AB2FB681A
:104120005A8562B600BFFB681B681A69FB685B6A48
:10413000D2B21A70FB685B6A5A1CFB685A62FB6851
:104140001B8D013B9AB2FB681A85FB685B8D9BB2A5
:10415000013B9AB2FB685A85E2E07B6A0093BB6B35
:1041600000227B49F86800F077FA0346002B01D063
:104170000123E9E0FB681B681A68FB681B6822F4EE
:1041800080621A6072B600BFFB681B681A69FB6820
:104190005B6AD2B21A70FB685B6A5A1CFB685A628F
:1041A000FB681B8D013B9AB2FB681A85FB685B8D2F
:1041B0009BB2013B9AB2FB685A85664B1B68DB08D1
:1041C000654AA2FB03231A0A13469B001344DA0034
:1041D000D31A3B623B6A013B3B623B6A002B18D11E
:1041E000FB6800221A63FB68202283F83D20FB68ED
:1041F000002283F83E20FB681B6C43F02002FB6822
:104200001A6462B600BFFB68002283F83C200123D9
:104210009AE0FB681B685B6903F00403042BD9D1A7
:10422000FB681B681A68FB681B6842F400721A601E
:10423000FB681B681A69FB685B6AD2B21A70FB687C
:104240005B6A5A1CFB685A62FB681B8D013B9AB281
:10425000FB681A85FB685B8D9BB2013B9AB2FB68D9
:104260005A8562B600BFFB681B681A69FB685B6A07
:10427000D2B21A70FB685B6A5A1CFB685A62FB6810
:104280001B8D013B9AB2FB681A85FB685B8D9BB264
:10429000013B9AB2FB685A8542E07A6AB96BF868CA
:1042A00000F032FB0346002B01D001234CE0FB68F9
:1042B0001B681A69FB685B6AD2B21A70FB685B6A9A
:1042C0005A1CFB685A62FB681B8D013B9AB2FB6863
:1042D0001A85FB685B8D9BB2013B9AB2FB685A85DD
:1042E000FB681B685B6903F00403042B18D1FB68AF
:1042F0001B681A69FB685B6AD2B21A70FB685B6A5A
:104300005A1CFB685A62FB681B8D013B9AB2FB6822
:104310001A85FB685B8D9BB2013B9AB2FB685A859C
:10432000FB681B8D002B7FF494AEFB68202283F882
:104330003D20FB68002283F83E20FB68002283F8C2
:104340003C20002300E0022318462837BD4680BDEC
:10435000040001003C00002089B5F81480B588B045
:1043600002AFF860084611461A4603467B810B46A9
:104370003B811346FB80FB681B681A68FB681B685F
:1043800042F480721A607B6A00933B6A00224FF00D
:104390000111F86800F060F90346002B0DD0FB68AE
:1043A0001B681B6803F48073B3F5807F03D1FB683F
:1043B0004FF400721A6403235FE07B89DBB21A4674
:1043C000FB681B6802F0FE021A617B6A3A6A2D499B
:1043D000F86800F098F90346002B01D001234CE067
:1043E00000237B61FB681B685B697B61FB681B6862
:1043F0009B697B617B697A6A396AF86800F002FA26
:104400000346002B0DD0FB681B6C042B07D1FB6807
:104410001B681A68FB681B6842F400721A6001236B
:104420002BE0FB88012B05D13B89DAB2FB681B68C6
:104430001A6121E03B891B0A9BB2DAB2FB681B6858
:104440001A617A6A396AF86800F0DCF90346002BD1
:104450000DD0FB681B6C042B07D1FB681B681A6826
:10446000FB681B6842F400721A60012305E03B8977
:10447000DAB2FB681B681A61002318461837BD467C
:1044800080BD00BF0200010080B588B002AFF860B7
:10449000084611461A4603467B810B463B8113466C
:1044A000FB80FB681B681A68FB681B6842F480622B
:1044B0001A60FB681B681A68FB681B6842F480720C
:1044C0001A607B6A00933B6A00224FF00111F86882
:1044D00000F0C2F80346002B0DD0FB681B681B6878
:1044E00003F48073B3F5807F03D1FB684FF400724F
:1044F0001A640323AAE07B89DBB21A46FB681B68B7
:1045000002F0FE021A617B6A3A6A5249F86800F0CA
:10451000FAF80346002B01D0012397E000237B61CA
:10452000FB681B685B697B61FB681B689B697B613F
:104530007B697A6A396AF86800F064F90346002BEF
:104540000DD0FB681B6C042B07D1FB681B681A6835
:10455000FB681B6842F400721A60012376E0FB8856
:10456000012B05D13B89DAB2FB681B681A6121E097
:104570003B891B0A9BB2DAB2FB681B681A617A6A34
:10458000396AF86800F03EF90346002B0DD0FB684D
:104590001B6C042B07D1FB681B681A68FB681B683F
:1045A00042F400721A60012350E03B89DAB2FB68E2
:1045B0001B681A617A6A396AF86800F023F90346C1
:1045C000002B0DD0FB681B6C042B07D1FB681B680C
:1045D0001A68FB681B6842F400721A60012335E018
:1045E000FB681B681A68FB681B6842F480721A60DB
:1045F0007B6A00933B6A00224FF00111F86800F0DB
:104600002BF80346002B0DD0FB681B681B6803F4D6
:104610008073B3F5807F03D1FB684FF400721A6496
:10462000032313E07B89DBB243F00103DAB2FB68BA
:104630001B681A617B6A3A6A0649F86800F063F8F9
:104640000346002B01D0012300E000231846183751
:10465000BD4680BD0200010080B584B000AFF860A7
:10466000B9603B601346FB7125E03B68B3F1FF3F47
:1046700021D0FEF7DBFE0246BB69D31A3A689A42A4
:1046800002D33B68002B16D1FB6800221A63FB683B
:10469000202283F83D20FB68002283F83E20FB683F
:1046A0001B6C43F02002FB681A64FB68002283F84D
:1046B0003C20012323E0BB681B0CDBB2012B0DD196
:1046C000FB681B685B69DA43BB6813409BB2002B35
:1046D0000CBF01230023DBB21A460CE0FB681B6809
:1046E0009B69DA43BB6813409BB2002B0CBF0123CC
:1046F0000023DBB21A46FB799A42B6D00023184653
:104700001037BD4680BD80B584B000AFF860B96099
:104710007A603B6051E0FB681B685B6903F480636F
:10472000B3F5806F23D1FB681B681A68FB681B68B0
:1047300042F400721A60FB681B686FF480625A6171
:10474000FB6800221A63FB68202283F83D20FB6887
:10475000002283F83E20FB681B6C43F00402FB68D8
:104760001A64FB68002283F83C20012346E07B6842
:10477000B3F1FF3F21D0FEF759FE02463B68D31A42
:104780007A689A4202D37B68002B16D1FB6800221C
:104790001A63FB68202283F83D20FB68002283F81F
:1047A0003E20FB681B6C43F02002FB681A64FB6828
:1047B000002283F83C20012320E0BB681B0CDBB205
:1047C000012B0CD1FB681B685B69DA43BB681340A3
:1047D0009BB2002B14BF01230023DBB20BE0FB686C
:1047E0001B689B69DA43BB6813409BB2002B14BF64
:1047F00001230023DBB2002B8DD100231846103794
:10480000BD4680BD80B584B000AFF860B9607A6005
:104810002DE0F86800F0CEF80346002B01D001230C
:104820002DE0BB68B3F1FF3F21D0FEF7FFFD02464C
:104830007B68D31ABA689A4202D3BB68002B16D1A0
:10484000FB6800221A63FB68202283F83D20FB6886
:10485000002283F83E20FB681B6C43F02002FB68BB
:104860001A64FB68002283F83C20012307E0FB6800
:104870001B685B6903F08003802BCAD100231846B4
:104880001037BD4680BD80B584B000AFF860B96018
:104890007A602DE0F86800F08DF80346002B01D017
:1048A00001232DE0BB68B3F1FF3F21D0FEF7BEFD31
:1048B00002467B68D31ABA689A4202D3BB68002BBF
:1048C00016D1FB6800221A63FB68202283F83D2082
:1048D000FB68002283F83E20FB681B6C43F020023B
:1048E000FB681A64FB68002283F83C20012307E080
:1048F000FB681B685B6903F00403042BCAD1002327
:1049000018461037BD4680BD80B584B000AFF86052
:10491000B9607A6042E0FB681B685B6903F01003D2
:10492000102B19D1FB681B686FF010025A61FB68ED
:1049300000221A63FB68202283F83D20FB680022D6
:1049400083F83E20FB681A6CFB681A64FB6800223F
:1049500083F83C20012329E0FEF768FD02467B68CE
:10496000D31ABA689A4202D3BB68002B16D1FB68EF
:1049700000221A63FB68202283F83D20FB68002296
:1049800083F83E20FB681B6C43F02002FB681A642E
:10499000FB68002283F83C20012307E0FB681B68CA
:1049A0005B6903F04003402BB5D100231846103754
:1049B000BD4680BD80B483B000AF78607B681B6863
:1049C0005B6903F48063B3F5806F1BD17B681B6860
:1049D0006FF480625A617B6800221A637B68202230
:1049E00083F83D207B68002283F83E207B681B6CA7
:1049F00043F004027B681A647B68002283F83C2041
:104A0000012300E0002318460C37BD4680BC7047E8
:104A100080B586B000AF78607B68002B01D10123A0
:104A200072E27B681B6803F00103002B00F08780B3
:104A3000924B5B6803F00C03042B0CD08F4B5B682C
:104A400003F00C03082B12D18C4B5B6803F480330A
:104A5000B3F5803F0BD1894B1B6803F40033002B67
:104A60006CD07B685B68002B68D101234CE27B68CB
:104A70005B68B3F5803F06D1804B1B687F4A43F4E7
:104A8000803313602EE07B685B68002B0CD17B4B7E
:104A90001B687A4A23F480331360784B1B68774A8B
:104AA00023F4802313601DE07B685B68B3F5A02FBF
:104AB0000CD1724B1B68714A43F4802313606F4B17
:104AC0001B686E4A43F4803313600BE06B4B1B682A
:104AD0006A4A23F480331360684B1B68674A23F4E7
:104AE000802313607B685B68002B13D0FEF79EFC6D
:104AF000386108E0FEF79AFC02463B69D31A642B42
:104B000001D9032300E25D4B1B6803F40033002B43
:104B1000F0D014E0FEF78AFC386108E0FEF786FC6E
:104B200002463B69D31A642B01D90323ECE1534BB2
:104B30001B6803F40033002BF0D100E000BF7B685A
:104B40001B6803F00203002B63D04C4B5B6803F03F
:104B50000C03002B0BD0494B5B6803F00C03082BB4
:104B60001CD1464B5B6803F48033002B16D1434BBA
:104B70001B6803F00203002B05D07B681B69012B27
:104B800001D00123C0E13D4B1B6823F0F8027B6894
:104B90005B69DB00394913430B603AE07B681B69B2
:104BA000002B20D0364B01221A60FEF73FFC386103
:104BB00008E0FEF73BFC02463B69D31A022B01D901
:104BC0000323A1E12D4B1B6803F00203002BF0D05F
:104BD0002A4B1B6823F0F8027B685B69DB002749DE
:104BE00013430B6015E0264B00221A60FEF71EFCF3
:104BF000386108E0FEF71AFC02463B69D31A022B23
:104C000001D9032380E11D4B1B6803F00203002B35
:104C1000F0D17B681B6803F00803002B3AD07B6857
:104C20009B69002B19D0174B01221A60FEF7FEFB7F
:104C3000386108E0FEF7FAFB02463B69D31A022B03
:104C400001D9032360E10D4B5B6A03F00203002BE3
:104C5000F0D0012000F0C4FA1CE00A4B00221A60D8
:104C6000FEF7E4FB38610FE0FEF7E0FB02463B692C
:104C7000D31A022B08D9032346E100BF00100240DB
:104C80000000424280044242924B5B6A03F00203FE
:104C9000002BE9D17B681B6803F00403002B00F0B4
:104CA000A6800023FB758B4BDB6903F08053002B40
:104CB0000DD1884BDB69874A43F08053D361854B24
:104CC000DB6903F08053BB60BB680123FB75824B3B
:104CD0001B6803F48073002B18D17F4B1B687E4A3E
:104CE00043F480731360FEF7A1FB386108E0FEF720
:104CF0009DFB02463B69D31A642B01D9032303E1D0
:104D0000754B1B6803F48073002BF0D07B68DB6865
:104D1000012B06D16F4B1B6A6E4A43F001031362ED
:104D20002DE07B68DB68002B0CD16A4B1B6A694A5B
:104D300023F001031362674B1B6A664A23F00403E6
:104D400013621CE07B68DB68052B0CD1614B1B6A8E
:104D5000604A43F0040313625E4B1B6A5D4A43F0F2
:104D6000010313620BE05B4B1B6A5A4A23F00103F9
:104D70001362584B1B6A574A23F0040313627B6883
:104D8000DB68002B15D0FEF751FB38610AE0FEF717
:104D90004DFB02463B69D31A41F28832934201D956
:104DA0000323B1E04B4B1B6A03F00203002BEED050
:104DB00014E0FEF73BFB38610AE0FEF737FB0246E2
:104DC0003B69D31A41F28832934201D903239BE015
:104DD000404B1B6A03F00203002BEED1FB7D012B3D
:104DE00005D13C4BDB693B4A23F08053D3617B68A0
:104DF000DB69002B00F08780364B5B6803F00C0307
:104E0000082B61D07B68DB69022B46D1334B002233
:104E10001A60FEF70BFB386108E0FEF707FB02465D
:104E20003B69D31A022B01D903236DE0294B1B6880
:104E300003F00073002BF0D17B681B6AB3F5803F51
:104E400008D1244B5B6823F400327B689B682149BE
:104E500013434B601F4B5B6823F474127B68196A21
:104E60007B685B6A0B431B4913434B601B4B01225E
:104E70001A60FEF7DBFA386108E0FEF7D7FA02465F
:104E80003B69D31A022B01D903233DE0114B1B6868
:104E900003F00073002BF0D035E0104B00221A60B5
:104EA000FEF7C4FA386108E0FEF7C0FA02463B6933
:104EB000D31A022B01D9032326E0064B1B6803F00B
:104EC0000073002BF0D11EE07B68DB69012B07D15A
:104ED000012319E0001002400070004060004242CF
:104EE0000B4B5B68FB60FB6803F480327B681B6ADA
:104EF0009A4206D1FB6803F470127B685B6A9A429F
:104F000001D0012300E0002318461837BD4680BDBC
:104F10000010024080B584B000AF786039607B68D3
:104F2000002B01D10123D0E06A4B1B6803F007037B
:104F30003A689A4210D9674B1B6823F0070265490B
:104F40003B6813430B60634B1B6803F007033A682D
:104F50009A4201D00123B8E07B681B6803F002038A
:104F6000002B20D07B681B6803F00403002B05D0C6
:104F7000594B5B68584A43F4E06353607B681B6895
:104F800003F00803002B05D0534B5B68524A43F4EF
:104F900060535360504B5B6823F0F0027B689B6862
:104FA0004D4913434B607B681B6803F00103002BE2
:104FB00040D07B685B68012B07D1474B1B6803F42B
:104FC0000033002B15D101237FE07B685B68022B47
:104FD00007D1414B1B6803F00073002B09D101235B
:104FE00073E03D4B1B6803F00203002B01D101234A
:104FF0006BE0394B5B6823F003027B685B683649E2
:1050000013434B60FEF712FAF8600AE0FEF70EFA5F
:105010000246FB68D31A41F28832934201D9032336
:1050200053E02D4B5B6803F00C027B685B689B00D0
:105030009A42EBD1274B1B6803F007033A689A4268
:1050400010D2244B1B6823F0070222493B6813430C
:105050000B60204B1B6803F007033A689A4201D0AB
:10506000012332E07B681B6803F00403002B08D0A7
:10507000194B5B6823F4E0627B68DB6816491343D5
:105080004B607B681B6803F00803002B09D0124BB0
:105090005B6823F460527B681B69DB000E49134395
:1050A0004B6000F021F802460B4B5B681B0903F0D4
:1050B0000F030A49CB5C22FA03F3094A1360094B38
:1050C0001B681846FEF770F9002318461037BD46D6
:1050D00080BD00BF0020024000100240A8B20008BE
:1050E0003C0000204000002090B48AB000AF294B63
:1050F0003C1D0FCB84E80F0040F201233B800023CE
:10510000FB610023BB6100237B6200237B610023E2
:105110003B62214B5B68FB61FB6903F00C03042BD2
:1051200002D0082B03D02BE01C4B3B622BE0FB6929
:105130009B0C03F00F0328333B4413F8243C7B61A2
:10514000FB6903F48033002B12D0134B5B685B0CBC
:1051500003F0010328333B4413F8283CBB617B690F
:105160000E4A03FB02F2BB69B2FBF3F37B6204E07D
:105170007B690B4A02FB03F37B627B6A3B6202E0C2
:10518000064B3B6200BF3B6A18462837BD4690BCC1
:10519000704700BF98B200080010024000127A0069
:1051A00000093D0080B400AF024B1B681846BD46A5
:1051B00080BC70473C00002080B500AFFFF7F2FFD5
:1051C0000246054B5B681B0A03F007030349CB5CEF
:1051D00022FA03F3184680BD00100240B8B200085E
:1051E00080B485B000AF78600A4B1B680A4AA2FB06
:1051F00003235B0A7A6802FB03F3FB6000BFFB68D2
:105200005A1EFA60002BF9D100BF00BF1437BD460B
:1052100080BC70473C000020D34D621080B582B046
:1052200000AF78607B68002B01D1012341E07B68EF
:1052300093F83D30DBB2002B06D17B68002283F867
:105240003C207868FDF7D2FE7B68022283F83D207F
:105250007B681A687B6804331946104600F004FE28
:105260007B68012283F846207B68012283F83E2078
:105270007B68012283F83F207B68012283F840206D
:105280007B68012283F841207B68012283F8422059
:105290007B68012283F843207B68012283F8442045
:1052A0007B68012283F845207B68012283F83D203A
:1052B000002318460837BD4680BD80B582B000AFD8
:1052C00078607B68002B01D1012341E07B6893F873
:1052D0003D30DBB2002B06D17B68002283F83C20F6
:1052E000786800F039F87B68022283F83D207B68FB
:1052F0001A687B6804331946104600F0B5FD7B68D8
:10530000012283F846207B68012283F83E207B68D7
:10531000012283F83F207B68012283F840207B68CC
:10532000012283F841207B68012283F842207B68B8
:10533000012283F843207B68012283F844207B68A4
:10534000012283F845207B68012283F83D20002359
:1053500018460837BD4680BD80B483B000AF786082
:1053600000BF0C37BD4680BC7047000080B584B0DC
:1053700000AF786039603B68002B09D17B6893F8F7
:105380003E30DBB2012B14BF01230023DBB222E04D
:105390003B68042B09D17B6893F83F30DBB2012BCB
:1053A00014BF01230023DBB215E03B68082B09D1B1
:1053B0007B6893F84030DBB2012B14BF012300233C
:1053C000DBB208E07B6893F84130DBB2012B14BFFD
:1053D00001230023DBB2002B01D001235EE03B68F8
:1053E000002B04D17B68022283F83E2013E03B6847
:1053F000042B04D17B68022283F83F200BE03B683A
:10540000082B04D17B68022283F8402003E07B68EC
:10541000022283F841207B681B6801223968184604
:1054200001F0AFF87B681B681E4A934207D17B6886
:105430001B685A6C7B681B6842F400425A647B68A4
:105440001B68184A93420ED07B681B68B3F1804FEB
:1054500009D07B681B68144A934204D07B681B68A0
:10546000124A934211D17B681B689B6803F00703C3
:10547000FB60FB68062B10D07B681B681A687B6892
:105480001B6842F001021A6007E07B681B681A681B
:105490007B681B6842F001021A600023184610372F
:1054A000BD4680BD002C01400004004000080040C3
:1054B00080B582B000AF78607B68002B01D10123FA
:1054C00041E07B6893F83D30DBB2002B06D17B686E
:1054D000002283F83C207868FDF744FD7B680222B7
:1054E00083F83D207B681A687B68043319461046B0
:1054F00000F0BAFC7B68012283F846207B68012219
:1055000083F83E207B68012283F83F207B680122DC
:1055100083F840207B68012283F841207B680122C8
:1055200083F842207B68012283F843207B680122B4
:1055300083F844207B68012283F845207B680122A0
:1055400083F83D20002318460837BD4680BD000083
:1055500080B584B000AF786039603B68002B04D11F
:105560007B6893F83E30DBB213E03B68042B04D138
:105570007B6893F83F30DBB20BE03B68082B04D12B
:105580007B6893F84030DBB203E07B6893F84130EE
:10559000DBB2FB733B68002B04D17B6893F842308D
:1055A000DBB213E03B68042B04D17B6893F84330F3
:1055B000DBB20BE03B68082B04D17B6893F84430E6
:1055C000DBB203E07B6893F84530DBB2BB73FB7B57
:1055D000012B02D1BB7B012B01D00123B3E03B683F
:1055E000002B04D17B68022283F83E2013E03B6845
:1055F000042B04D17B68022283F83F200BE03B6838
:10560000082B04D17B68022283F8402003E07B68EA
:10561000022283F841203B68002B04D17B680222E0
:1056200083F8422013E03B68042B04D17B680222FC
:1056300083F843200BE03B68082B04D17B680222EF
:1056400083F8442003E07B68022283F845203B680E
:105650000C2B41D801A252F823F000BF915600084C
:10566000D9560008D9560008D9560008A356000894
:10567000D9560008D9560008D9560008B556000872
:10568000D9560008D9560008D9560008C756000850
:105690007B681B68DA687B681B6842F00202DA608C
:1056A0001BE07B681B68DA687B681B6842F00402B9
:1056B000DA6012E07B681B68DA687B681B6842F07E
:1056C0000802DA6009E07B681B68DA687B681B689F
:1056D00042F01002DA6000E000BF7B681B68012224
:1056E0003968184600F04DFF7B681B68184A9342E2
:1056F0000ED07B681B68B3F1804F09D07B681B68B4
:10570000144A934204D07B681B68134A934211D118
:105710007B681B689B6803F00703BB60BB68062BB4
:1057200010D07B681B681A687B681B6842F0010216
:105730001A6007E07B681B681A687B681B6842F088
:1057400001021A60002318461037BD4680BD00BF15
:10575000002C0140000400400008004080B582B0E9
:1057600000AF78607B681B681B6903F00203022BA3
:1057700022D17B681B68DB6803F00203022B1BD17C
:105780007B681B686FF002021A617B6801221A773E
:105790007B681B689B6903F00303002B03D07868C8
:1057A000FBF7BCFC05E0786800F043FB786800F08C
:1057B00049FB7B6800221A777B681B681B6903F032
:1057C0000403042B22D17B681B68DB6803F004030D
:1057D000042B1BD17B681B686FF004021A617B6885
:1057E00002221A777B681B689B6903F44073002BC5
:1057F00003D07868FBF792FC05E0786800F019FBAD
:10580000786800F01FFB7B6800221A777B681B68B2
:105810001B6903F00803082B22D17B681B68DB6837
:1058200003F00803082B1BD17B681B686FF008028C
:105830001A617B6804221A777B681B68DB6903F0B6
:105840000303002B03D07868FBF768FC05E0786859
:1058500000F0EFFA786800F0F5FA7B6800221A771A
:105860007B681B681B6903F01003102B22D17B6837
:105870001B68DB6803F01003102B1BD17B681B68CF
:105880006FF010021A617B6808221A777B681B6828
:10589000DB6903F44073002B03D07868FBF73EFC10
:1058A00005E0786800F0C5FA786800F0CBFA7B680C
:1058B00000221A777B681B681B6903F00103012B28
:1058C0000ED17B681B68DB6803F00103012B07D155
:1058D0007B681B686FF001021A61786800F0A0FA1B
:1058E0007B681B681B6903F08003802B0ED17B68EB
:1058F0001B68DB6803F08003802B07D17B681B6883
:105900006FF080021A61786800F0C7FE7B681B6840
:105910001B6903F04003402B0ED17B681B68DB68DA
:1059200003F04003402B07D17B681B686FF04002F7
:105930001A61786800F08FFA7B681B681B6903F0B6
:105940002003202B0ED17B681B68DB6803F020034B
:10595000202B07D17B681B686FF020021A617868E2
:1059600000F092FE00BF0837BD4680BD80B584B010
:1059700000AFF860B9607A60FB6893F83C30012BA7
:1059800001D1022382E0FB68012283F83C207B687E
:10599000002B1BD1FB681868BB681968BB685A6884
:1059A000BB68DB6800F04AFCFB681B689A69FB680F
:1059B0001B6822F00C029A61FB681B689969BB683E
:1059C0009A68FB681B680A439A615AE07B68042B5B
:1059D0001CD1FB681868BB681968BB685A68BB684B
:1059E000DB6800F0B3FCFB681B689A69FB681B6806
:1059F00022F440629A61FB681B689969BB689B68E6
:105A00001A02FB681B680A439A613AE07B68082B1C
:105A10001BD1FB681868BB681968BB685A68BB680B
:105A2000DB6800F0FEFCFB681B68DA69FB681B683A
:105A300022F00C02DA61FB681B68D969BB689A68BE
:105A4000FB681B680A43DA611BE0FB681868BB68E7
:105A50001968BB685A68BB68DB6800F01DFDFB680D
:105A60001B68DA69FB681B6822F44062DA61FB6834
:105A70001B68D969BB689B681A02FB681B680A43EC
:105A8000DA61FB68002283F83C20002318461037B7
:105A9000BD4680BD80B584B000AFF860B9607A6063
:105AA000FB6893F83C30012B01D10223ACE0FB688A
:105AB000012283F83C207B680C2B00F29F8001A21E
:105AC00052F823F0F95A0008FD5B0008FD5B00085E
:105AD000FD5B0008395B0008FD5B0008FD5B00080A
